{
  "_format": "hh-sol-artifact-1",
  "contractName": "WavePortal",
  "sourceName": "contracts/WavePortal.sol",
  "abi": [
    {
      "inputs": [],
      "stateMutability": "payable",
      "type": "constructor"
    },
    {
      "anonymous": false,
      "inputs": [
        {
          "indexed": true,
          "internalType": "address",
          "name": "from",
          "type": "address"
        },
        {
          "indexed": false,
          "internalType": "uint256",
          "name": "timestamp",
          "type": "uint256"
        },
        {
          "indexed": false,
          "internalType": "string",
          "name": "message",
          "type": "string"
        }
      ],
      "name": "NewWave",
      "type": "event"
    },
    {
      "inputs": [],
      "name": "balanceOfContract",
      "outputs": [
        {
          "internalType": "uint256",
          "name": "",
          "type": "uint256"
        }
      ],
      "stateMutability": "view",
      "type": "function"
    },
    {
      "inputs": [],
      "name": "getAllWaves",
      "outputs": [
        {
          "components": [
            {
              "internalType": "address",
              "name": "waver",
              "type": "address"
            },
            {
              "internalType": "string",
              "name": "message",
              "type": "string"
            },
            {
              "internalType": "uint256",
              "name": "timestamp",
              "type": "uint256"
            },
            {
              "internalType": "bool",
              "name": "isWinner",
              "type": "bool"
            }
          ],
          "internalType": "struct WavePortal.Wave[]",
          "name": "",
          "type": "tuple[]"
        }
      ],
      "stateMutability": "view",
      "type": "function"
    },
    {
      "inputs": [],
      "name": "getTotalWaves",
      "outputs": [
        {
          "internalType": "uint256",
          "name": "",
          "type": "uint256"
        }
      ],
      "stateMutability": "view",
      "type": "function"
    },
    {
      "inputs": [
        {
          "internalType": "address",
          "name": "",
          "type": "address"
        }
      ],
      "name": "lastWavedAt",
      "outputs": [
        {
          "internalType": "uint256",
          "name": "",
          "type": "uint256"
        }
      ],
      "stateMutability": "view",
      "type": "function"
    },
    {
      "inputs": [
        {
          "internalType": "bool",
          "name": "boolean",
          "type": "bool"
        }
      ],
      "name": "manageWinner",
      "outputs": [
        {
          "internalType": "bool",
          "name": "",
          "type": "bool"
        }
      ],
      "stateMutability": "pure",
      "type": "function"
    },
    {
      "inputs": [
        {
          "internalType": "string",
          "name": "_message",
          "type": "string"
        }
      ],
      "name": "wave",
      "outputs": [],
      "stateMutability": "payable",
      "type": "function"
    }
  ],
  "bytecode": "0x60806040526200004f6040518060400160405280601981526020017f57652068617665206265656e20636f6e737472756374656421000000000000008152506200007760201b620008421760201c565b606444426200005f9190620001c4565b6200006b919062000261565b60018190555062000308565b62000117816040516024016200008e919062000184565b6040516020818303038152906040527f41304fac000000000000000000000000000000000000000000000000000000007bffffffffffffffffffffffffffffffffffffffffffffffffffffffff19166020820180517bffffffffffffffffffffffffffffffffffffffffffffffffffffffff83818316178352505050506200011a60201b60201c565b50565b60008151905060006a636f6e736f6c652e6c6f679050602083016000808483855afa5050505050565b60006200015082620001a8565b6200015c8185620001b3565b93506200016e8185602086016200022b565b6200017981620002f7565b840191505092915050565b60006020820190508181036000830152620001a0818462000143565b905092915050565b600081519050919050565b600082825260208201905092915050565b6000620001d18262000221565b9150620001de8362000221565b9250827fffffffffffffffffffffffffffffffffffffffffffffffffffffffffffffffff0382111562000216576200021562000299565b5b828201905092915050565b6000819050919050565b60005b838110156200024b5780820151818401526020810190506200022e565b838111156200025b576000848401525b50505050565b60006200026e8262000221565b91506200027b8362000221565b9250826200028e576200028d620002c8565b5b828206905092915050565b7f4e487b7100000000000000000000000000000000000000000000000000000000600052601160045260246000fd5b7f4e487b7100000000000000000000000000000000000000000000000000000000600052601260045260246000fd5b6000601f19601f8301169050919050565b61136180620003186000396000f3fe6080604052600436106100555760003560e01c8063449d46c01461005a5780637be66bfd146100765780639a2cdc08146100b3578063a42a4663146100de578063bd43a9081461011b578063e6c7c45614610146575b600080fd5b610074600480360381019061006f9190610b27565b610171565b005b34801561008257600080fd5b5061009d60048036038101906100989190610afe565b6106a3565b6040516100aa9190610ee3565b60405180910390f35b3480156100bf57600080fd5b506100c86106ad565b6040516100d59190610fd0565b60405180910390f35b3480156100ea57600080fd5b5061010560048036038101906101009190610ad5565b6106b6565b6040516101129190610fd0565b60405180910390f35b34801561012757600080fd5b506101306106ce565b60405161013d9190610ec1565b60405180910390f35b34801561015257600080fd5b5061015b61083a565b6040516101689190610fd0565b60405180910390f35b42600f600360003373ffffffffffffffffffffffffffffffffffffffff1673ffffffffffffffffffffffffffffffffffffffff168152602001908152602001600020546101be91906110ed565b106101fe576040517f08c379a00000000000000000000000000000000000000000000000000000000081526004016101f590610f70565b60405180910390fd5b67016345785d8a00003414610248576040517f08c379a000000000000000000000000000000000000000000000000000000000815260040161023f90610fb0565b60405180910390fd5b42600360003373ffffffffffffffffffffffffffffffffffffffff1673ffffffffffffffffffffffffffffffffffffffff16815260200190815260200160002081905550600160008082825461029e91906110ed565b925050819055506102e46040518060400160405280600d81526020017f2573206861732077617665642100000000000000000000000000000000000000815250336108db565b606460015442446102f591906110ed565b6102ff91906110ed565b61030991906111ff565b60018190555060326001541161055a576103586040518060400160405280600781526020017f257320776f6e2100000000000000000000000000000000000000000000000000815250336108db565b600260405180608001604052803373ffffffffffffffffffffffffffffffffffffffff16815260200183815260200142815260200160011515815250908060018154018082558091505060019003906000526020600020906004020160009091909190915060008201518160000160006101000a81548173ffffffffffffffffffffffffffffffffffffffff021916908373ffffffffffffffffffffffffffffffffffffffff16021790555060208201518160010190805190602001906104209291906109a0565b506040820151816002015560608201518160030160006101000a81548160ff0219169083151502179055505050600061045761083a565b90504781111561049c576040517f08c379a000000000000000000000000000000000000000000000000000000000815260040161049390610f90565b60405180910390fd5b60003373ffffffffffffffffffffffffffffffffffffffff16826040516104c290610eac565b60006040518083038185875af1925050503d80600081146104ff576040519150601f19603f3d011682016040523d82523d6000602084013e610504565b606091505b5050905061051260016106a3565b5080610553576040517f08c379a000000000000000000000000000000000000000000000000000000000815260040161054a90610f50565b60405180910390fd5b5050610650565b600260405180608001604052803373ffffffffffffffffffffffffffffffffffffffff16815260200183815260200142815260200160001515815250908060018154018082558091505060019003906000526020600020906004020160009091909190915060008201518160000160006101000a81548173ffffffffffffffffffffffffffffffffffffffff021916908373ffffffffffffffffffffffffffffffffffffffff16021790555060208201518160010190805190602001906106229291906109a0565b506040820151816002015560608201518160030160006101000a81548160ff02191690831515021790555050505b3373ffffffffffffffffffffffffffffffffffffffff167f5f7e16dc676677766a70e9c5628aa6c54ddb8b6e5188e2ae1e1f17f1ffbea7164283604051610698929190610feb565b60405180910390a250565b6000819050919050565b60008054905090565b60036020528060005260406000206000915090505481565b60606002805480602002602001604051908101604052809291908181526020016000905b8282101561083157838290600052602060002090600402016040518060800160405290816000820160009054906101000a900473ffffffffffffffffffffffffffffffffffffffff1673ffffffffffffffffffffffffffffffffffffffff1673ffffffffffffffffffffffffffffffffffffffff16815260200160018201805461077b906111cd565b80601f01602080910402602001604051908101604052809291908181526020018280546107a7906111cd565b80156107f45780601f106107c9576101008083540402835291602001916107f4565b820191906000526020600020905b8154815290600101906020018083116107d757829003601f168201915b50505050508152602001600282015481526020016003820160009054906101000a900460ff161515151581525050815260200190600101906106f2565b50505050905090565b600047905090565b6108d8816040516024016108569190610efe565b6040516020818303038152906040527f41304fac000000000000000000000000000000000000000000000000000000007bffffffffffffffffffffffffffffffffffffffffffffffffffffffff19166020820180517bffffffffffffffffffffffffffffffffffffffffffffffffffffffff8381831617835250505050610977565b50565b61097382826040516024016108f1929190610f20565b6040516020818303038152906040527f319af333000000000000000000000000000000000000000000000000000000007bffffffffffffffffffffffffffffffffffffffffffffffffffffffff19166020820180517bffffffffffffffffffffffffffffffffffffffffffffffffffffffff8381831617835250505050610977565b5050565b60008151905060006a636f6e736f6c652e6c6f679050602083016000808483855afa5050505050565b8280546109ac906111cd565b90600052602060002090601f0160209004810192826109ce5760008555610a15565b82601f106109e757805160ff1916838001178555610a15565b82800160010185558215610a15579182015b82811115610a145782518255916020019190600101906109f9565b5b509050610a229190610a26565b5090565b5b80821115610a3f576000816000905550600101610a27565b5090565b6000610a56610a518461104c565b61101b565b905082815260208101848484011115610a6e57600080fd5b610a7984828561118b565b509392505050565b600081359050610a90816112fd565b92915050565b600081359050610aa581611314565b92915050565b600082601f830112610abc57600080fd5b8135610acc848260208601610a43565b91505092915050565b600060208284031215610ae757600080fd5b6000610af584828501610a81565b91505092915050565b600060208284031215610b1057600080fd5b6000610b1e84828501610a96565b91505092915050565b600060208284031215610b3957600080fd5b600082013567ffffffffffffffff811115610b5357600080fd5b610b5f84828501610aab565b91505092915050565b6000610b748383610e2b565b905092915050565b610b8581611143565b82525050565b610b9481611143565b82525050565b6000610ba58261108c565b610baf81856110af565b935083602082028501610bc18561107c565b8060005b85811015610bfd5784840389528151610bde8582610b68565b9450610be9836110a2565b925060208a01995050600181019050610bc5565b50829750879550505050505092915050565b610c1881611155565b82525050565b610c2781611155565b82525050565b6000610c3882611097565b610c4281856110cb565b9350610c5281856020860161119a565b610c5b816112ec565b840191505092915050565b6000610c7182611097565b610c7b81856110dc565b9350610c8b81856020860161119a565b610c94816112ec565b840191505092915050565b6000610cac6027836110dc565b91507f4661696c656420746f207769746864726177206d6f6e65792066726f6d20636f60008301527f6e74726163742e000000000000000000000000000000000000000000000000006020830152604082019050919050565b6000610d126029836110dc565b91507f57616974207365636f6e6473206265666f72652073656e64696e672061206e6560008301527f77206d65737361676500000000000000000000000000000000000000000000006020830152604082019050919050565b6000610d786035836110dc565b91507f547279696e6720746f207769746864726177206d6f7265206d6f6e657920746860008301527f616e207468657920636f6e7472616374206861732e00000000000000000000006020830152604082019050919050565b6000610dde6000836110c0565b9150600082019050919050565b6000610df86016836110dc565b91507f6e65656420746f2073656e6420302e31206574682121000000000000000000006000830152602082019050919050565b6000608083016000830151610e436000860182610b7c565b5060208301518482036020860152610e5b8282610c2d565b9150506040830151610e706040860182610e8e565b506060830151610e836060860182610c0f565b508091505092915050565b610e9781611181565b82525050565b610ea681611181565b82525050565b6000610eb782610dd1565b9150819050919050565b60006020820190508181036000830152610edb8184610b9a565b905092915050565b6000602082019050610ef86000830184610c1e565b92915050565b60006020820190508181036000830152610f188184610c66565b905092915050565b60006040820190508181036000830152610f3a8185610c66565b9050610f496020830184610b8b565b9392505050565b60006020820190508181036000830152610f6981610c9f565b9050919050565b60006020820190508181036000830152610f8981610d05565b9050919050565b60006020820190508181036000830152610fa981610d6b565b9050919050565b60006020820190508181036000830152610fc981610deb565b9050919050565b6000602082019050610fe56000830184610e9d565b92915050565b60006040820190506110006000830185610e9d565b81810360208301526110128184610c66565b90509392505050565b6000604051905081810181811067ffffffffffffffff82111715611042576110416112bd565b5b8060405250919050565b600067ffffffffffffffff821115611067576110666112bd565b5b601f19601f8301169050602081019050919050565b6000819050602082019050919050565b600081519050919050565b600081519050919050565b6000602082019050919050565b600082825260208201905092915050565b600081905092915050565b600082825260208201905092915050565b600082825260208201905092915050565b60006110f882611181565b915061110383611181565b9250827fffffffffffffffffffffffffffffffffffffffffffffffffffffffffffffffff0382111561113857611137611230565b5b828201905092915050565b600061114e82611161565b9050919050565b60008115159050919050565b600073ffffffffffffffffffffffffffffffffffffffff82169050919050565b6000819050919050565b82818337600083830152505050565b60005b838110156111b857808201518184015260208101905061119d565b838111156111c7576000848401525b50505050565b600060028204905060018216806111e557607f821691505b602082108114156111f9576111f861128e565b5b50919050565b600061120a82611181565b915061121583611181565b9250826112255761122461125f565b5b828206905092915050565b7f4e487b7100000000000000000000000000000000000000000000000000000000600052601160045260246000fd5b7f4e487b7100000000000000000000000000000000000000000000000000000000600052601260045260246000fd5b7f4e487b7100000000000000000000000000000000000000000000000000000000600052602260045260246000fd5b7f4e487b7100000000000000000000000000000000000000000000000000000000600052604160045260246000fd5b6000601f19601f8301169050919050565b61130681611143565b811461131157600080fd5b50565b61131d81611155565b811461132857600080fd5b5056fea26469706673582212201aa40bf8ff9896058a54ab02ec32a60f8157fa1d2d9fbf10cb7b8a58e282cad164736f6c63430008000033",
  "linkReferences": {},
  "deployedLinkReferences": {}
}