{
  "_format": "hh-sol-artifact-1",
  "contractName": "WavePortal",
  "sourceName": "contracts/WavePortal.sol",
  "abi": [
    {
      "inputs": [],
      "stateMutability": "payable",
      "type": "constructor"
    },
    {
      "anonymous": false,
      "inputs": [
        {
          "indexed": true,
          "internalType": "address",
          "name": "from",
          "type": "address"
        },
        {
          "indexed": false,
          "internalType": "uint256",
          "name": "timestamp",
          "type": "uint256"
        },
        {
          "indexed": false,
          "internalType": "string",
          "name": "message",
          "type": "string"
        },
        {
          "indexed": false,
          "internalType": "uint256",
          "name": "price",
          "type": "uint256"
        }
      ],
      "name": "NewWave",
      "type": "event"
    },
    {
      "inputs": [],
      "name": "balanceOfContract",
      "outputs": [
        {
          "internalType": "uint256",
          "name": "",
          "type": "uint256"
        }
      ],
      "stateMutability": "view",
      "type": "function"
    },
    {
      "inputs": [],
      "name": "getAllWaves",
      "outputs": [
        {
          "components": [
            {
              "internalType": "address",
              "name": "waver",
              "type": "address"
            },
            {
              "internalType": "string",
              "name": "message",
              "type": "string"
            },
            {
              "internalType": "uint256",
              "name": "timestamp",
              "type": "uint256"
            }
          ],
          "internalType": "struct WavePortal.Wave[]",
          "name": "",
          "type": "tuple[]"
        }
      ],
      "stateMutability": "view",
      "type": "function"
    },
    {
      "inputs": [],
      "name": "getTotalWaves",
      "outputs": [
        {
          "internalType": "uint256",
          "name": "",
          "type": "uint256"
        }
      ],
      "stateMutability": "view",
      "type": "function"
    },
    {
      "inputs": [
        {
          "internalType": "address",
          "name": "",
          "type": "address"
        }
      ],
      "name": "lastWavedAt",
      "outputs": [
        {
          "internalType": "uint256",
          "name": "",
          "type": "uint256"
        }
      ],
      "stateMutability": "view",
      "type": "function"
    },
    {
      "inputs": [
        {
          "internalType": "string",
          "name": "_message",
          "type": "string"
        }
      ],
      "name": "wave",
      "outputs": [],
      "stateMutability": "payable",
      "type": "function"
    }
  ],
  "bytecode": "0x60806040526200004f6040518060400160405280601981526020017f57652068617665206265656e20636f6e737472756374656421000000000000008152506200007760201b620006fc1760201c565b606444426200005f9190620001c4565b6200006b919062000261565b60018190555062000308565b62000117816040516024016200008e919062000184565b6040516020818303038152906040527f41304fac000000000000000000000000000000000000000000000000000000007bffffffffffffffffffffffffffffffffffffffffffffffffffffffff19166020820180517bffffffffffffffffffffffffffffffffffffffffffffffffffffffff83818316178352505050506200011a60201b60201c565b50565b60008151905060006a636f6e736f6c652e6c6f679050602083016000808483855afa5050505050565b60006200015082620001a8565b6200015c8185620001b3565b93506200016e8185602086016200022b565b6200017981620002f7565b840191505092915050565b60006020820190508181036000830152620001a0818462000143565b905092915050565b600081519050919050565b600082825260208201905092915050565b6000620001d18262000221565b9150620001de8362000221565b9250827fffffffffffffffffffffffffffffffffffffffffffffffffffffffffffffffff0382111562000216576200021562000299565b5b828201905092915050565b6000819050919050565b60005b838110156200024b5780820151818401526020810190506200022e565b838111156200025b576000848401525b50505050565b60006200026e8262000221565b91506200027b8362000221565b9250826200028e576200028d620002c8565b5b828206905092915050565b7f4e487b7100000000000000000000000000000000000000000000000000000000600052601160045260246000fd5b7f4e487b7100000000000000000000000000000000000000000000000000000000600052601260045260246000fd5b6000601f19601f8301169050919050565b6111db80620003186000396000f3fe60806040526004361061004a5760003560e01c8063449d46c01461004f5780639a2cdc081461006b578063a42a466314610096578063bd43a908146100d3578063e6c7c456146100fe575b600080fd5b610069600480360381019061006491906109a3565b610129565b005b34801561007757600080fd5b50610080610582565b60405161008d9190610e0f565b60405180910390f35b3480156100a257600080fd5b506100bd60048036038101906100b8919061097a565b61058b565b6040516100ca9190610e0f565b60405180910390f35b3480156100df57600080fd5b506100e86105a3565b6040516100f59190610d1b565b60405180910390f35b34801561010a57600080fd5b506101136106f4565b6040516101209190610e0f565b60405180910390f35b42600f600360003373ffffffffffffffffffffffffffffffffffffffff1673ffffffffffffffffffffffffffffffffffffffff168152602001908152602001600020546101769190610f78565b106101b6576040517f08c379a00000000000000000000000000000000000000000000000000000000081526004016101ad90610daf565b60405180910390fd5b67016345785d8a00003414610200576040517f08c379a00000000000000000000000000000000000000000000000000000000081526004016101f790610def565b60405180910390fd5b42600360003373ffffffffffffffffffffffffffffffffffffffff1673ffffffffffffffffffffffffffffffffffffffff1681526020019081526020016000208190555060016000808282546102569190610f78565b9250508190555061029c6040518060400160405280600d81526020017f257320686173207761766564210000000000000000000000000000000000000081525033610795565b600260405180606001604052803373ffffffffffffffffffffffffffffffffffffffff16815260200183815260200142815250908060018154018082558091505060019003906000526020600020906003020160009091909190915060008201518160000160006101000a81548173ffffffffffffffffffffffffffffffffffffffff021916908373ffffffffffffffffffffffffffffffffffffffff160217905550602082015181600101908051906020019061035b92919061085a565b50604082015181600201555050606460015442446103799190610f78565b6103839190610f78565b61038d9190611090565b60018190555060326001541161052c576103dc6040518060400160405280600781526020017f257320776f6e210000000000000000000000000000000000000000000000000081525033610795565b60006103e66106f4565b90504781111561042b576040517f08c379a000000000000000000000000000000000000000000000000000000000815260040161042290610dcf565b60405180910390fd5b60003373ffffffffffffffffffffffffffffffffffffffff168260405161045190610d06565b60006040518083038185875af1925050503d806000811461048e576040519150601f19603f3d011682016040523d82523d6000602084013e610493565b606091505b50509050806104d7576040517f08c379a00000000000000000000000000000000000000000000000000000000081526004016104ce90610d8f565b60405180910390fd5b3373ffffffffffffffffffffffffffffffffffffffff167f3e113f502ff7c90598a6182f87f699985e9c373d089ba56a11d88a26891c5c8b42858560405161052193929190610e68565b60405180910390a250505b3373ffffffffffffffffffffffffffffffffffffffff167f3e113f502ff7c90598a6182f87f699985e9c373d089ba56a11d88a26891c5c8b4283600060405161057793929190610e2a565b60405180910390a250565b60008054905090565b60036020528060005260406000206000915090505481565b60606002805480602002602001604051908101604052809291908181526020016000905b828210156106eb57838290600052602060002090600302016040518060600160405290816000820160009054906101000a900473ffffffffffffffffffffffffffffffffffffffff1673ffffffffffffffffffffffffffffffffffffffff1673ffffffffffffffffffffffffffffffffffffffff1681526020016001820180546106509061105e565b80601f016020809104026020016040519081016040528092919081815260200182805461067c9061105e565b80156106c95780601f1061069e576101008083540402835291602001916106c9565b820191906000526020600020905b8154815290600101906020018083116106ac57829003601f168201915b50505050508152602001600282015481525050815260200190600101906105c7565b50505050905090565b600047905090565b610792816040516024016107109190610d3d565b6040516020818303038152906040527f41304fac000000000000000000000000000000000000000000000000000000007bffffffffffffffffffffffffffffffffffffffffffffffffffffffff19166020820180517bffffffffffffffffffffffffffffffffffffffffffffffffffffffff8381831617835250505050610831565b50565b61082d82826040516024016107ab929190610d5f565b6040516020818303038152906040527f319af333000000000000000000000000000000000000000000000000000000007bffffffffffffffffffffffffffffffffffffffffffffffffffffffff19166020820180517bffffffffffffffffffffffffffffffffffffffffffffffffffffffff8381831617835250505050610831565b5050565b60008151905060006a636f6e736f6c652e6c6f679050602083016000808483855afa5050505050565b8280546108669061105e565b90600052602060002090601f01602090048101928261088857600085556108cf565b82601f106108a157805160ff19168380011785556108cf565b828001600101855582156108cf579182015b828111156108ce5782518255916020019190600101906108b3565b5b5090506108dc91906108e0565b5090565b5b808211156108f95760008160009055506001016108e1565b5090565b600061091061090b84610ed7565b610ea6565b90508281526020810184848401111561092857600080fd5b61093384828561101c565b509392505050565b60008135905061094a8161118e565b92915050565b600082601f83011261096157600080fd5b81356109718482602086016108fd565b91505092915050565b60006020828403121561098c57600080fd5b600061099a8482850161093b565b91505092915050565b6000602082840312156109b557600080fd5b600082013567ffffffffffffffff8111156109cf57600080fd5b6109db84828501610950565b91505092915050565b60006109f08383610c98565b905092915050565b610a0181610fce565b82525050565b610a1081610fce565b82525050565b6000610a2182610f17565b610a2b8185610f3a565b935083602082028501610a3d85610f07565b8060005b85811015610a795784840389528151610a5a85826109e4565b9450610a6583610f2d565b925060208a01995050600181019050610a41565b50829750879550505050505092915050565b610a948161100a565b82525050565b6000610aa582610f22565b610aaf8185610f56565b9350610abf81856020860161102b565b610ac88161117d565b840191505092915050565b6000610ade82610f22565b610ae88185610f67565b9350610af881856020860161102b565b610b018161117d565b840191505092915050565b6000610b19602783610f67565b91507f4661696c656420746f207769746864726177206d6f6e65792066726f6d20636f60008301527f6e74726163742e000000000000000000000000000000000000000000000000006020830152604082019050919050565b6000610b7f602983610f67565b91507f57616974207365636f6e6473206265666f72652073656e64696e672061206e6560008301527f77206d65737361676500000000000000000000000000000000000000000000006020830152604082019050919050565b6000610be5603583610f67565b91507f547279696e6720746f207769746864726177206d6f7265206d6f6e657920746860008301527f616e207468657920636f6e7472616374206861732e00000000000000000000006020830152604082019050919050565b6000610c4b600083610f4b565b9150600082019050919050565b6000610c65601683610f67565b91507f6e65656420746f2073656e6420302e31206574682121000000000000000000006000830152602082019050919050565b6000606083016000830151610cb060008601826109f8565b5060208301518482036020860152610cc88282610a9a565b9150506040830151610cdd6040860182610ce8565b508091505092915050565b610cf181611000565b82525050565b610d0081611000565b82525050565b6000610d1182610c3e565b9150819050919050565b60006020820190508181036000830152610d358184610a16565b905092915050565b60006020820190508181036000830152610d578184610ad3565b905092915050565b60006040820190508181036000830152610d798185610ad3565b9050610d886020830184610a07565b9392505050565b60006020820190508181036000830152610da881610b0c565b9050919050565b60006020820190508181036000830152610dc881610b72565b9050919050565b60006020820190508181036000830152610de881610bd8565b9050919050565b60006020820190508181036000830152610e0881610c58565b9050919050565b6000602082019050610e246000830184610cf7565b92915050565b6000606082019050610e3f6000830186610cf7565b8181036020830152610e518185610ad3565b9050610e606040830184610a8b565b949350505050565b6000606082019050610e7d6000830186610cf7565b8181036020830152610e8f8185610ad3565b9050610e9e6040830184610cf7565b949350505050565b6000604051905081810181811067ffffffffffffffff82111715610ecd57610ecc61114e565b5b8060405250919050565b600067ffffffffffffffff821115610ef257610ef161114e565b5b601f19601f8301169050602081019050919050565b6000819050602082019050919050565b600081519050919050565b600081519050919050565b6000602082019050919050565b600082825260208201905092915050565b600081905092915050565b600082825260208201905092915050565b600082825260208201905092915050565b6000610f8382611000565b9150610f8e83611000565b9250827fffffffffffffffffffffffffffffffffffffffffffffffffffffffffffffffff03821115610fc357610fc26110c1565b5b828201905092915050565b6000610fd982610fe0565b9050919050565b600073ffffffffffffffffffffffffffffffffffffffff82169050919050565b6000819050919050565b600061101582611000565b9050919050565b82818337600083830152505050565b60005b8381101561104957808201518184015260208101905061102e565b83811115611058576000848401525b50505050565b6000600282049050600182168061107657607f821691505b6020821081141561108a5761108961111f565b5b50919050565b600061109b82611000565b91506110a683611000565b9250826110b6576110b56110f0565b5b828206905092915050565b7f4e487b7100000000000000000000000000000000000000000000000000000000600052601160045260246000fd5b7f4e487b7100000000000000000000000000000000000000000000000000000000600052601260045260246000fd5b7f4e487b7100000000000000000000000000000000000000000000000000000000600052602260045260246000fd5b7f4e487b7100000000000000000000000000000000000000000000000000000000600052604160045260246000fd5b6000601f19601f8301169050919050565b61119781610fce565b81146111a257600080fd5b5056fea26469706673582212209b759486ffa12ff169f233fdca387f6842e6dce2a2cee32323162727c9298a4364736f6c63430008000033",
  "linkReferences": {},
  "deployedLinkReferences": {}
}