{
  "_format": "hh-sol-artifact-1",
  "contractName": "WavePortal",
  "sourceName": "contracts/WavePortal.sol",
  "abi": [
    {
      "inputs": [],
      "stateMutability": "payable",
      "type": "constructor"
    },
    {
      "anonymous": false,
      "inputs": [
        {
          "indexed": true,
          "internalType": "address",
          "name": "from",
          "type": "address"
        },
        {
          "indexed": false,
          "internalType": "uint256",
          "name": "timestamp",
          "type": "uint256"
        },
        {
          "indexed": false,
          "internalType": "string",
          "name": "message",
          "type": "string"
        }
      ],
      "name": "NewWave",
      "type": "event"
    },
    {
      "inputs": [],
      "name": "balanceOfContract",
      "outputs": [
        {
          "internalType": "uint256",
          "name": "",
          "type": "uint256"
        }
      ],
      "stateMutability": "view",
      "type": "function"
    },
    {
      "inputs": [],
      "name": "getAllWaves",
      "outputs": [
        {
          "components": [
            {
              "internalType": "address",
              "name": "waver",
              "type": "address"
            },
            {
              "internalType": "string",
              "name": "message",
              "type": "string"
            },
            {
              "internalType": "uint256",
              "name": "timestamp",
              "type": "uint256"
            },
            {
              "internalType": "bool",
              "name": "isWinner",
              "type": "bool"
            },
            {
              "internalType": "uint256",
              "name": "price",
              "type": "uint256"
            }
          ],
          "internalType": "struct WavePortal.Wave[]",
          "name": "",
          "type": "tuple[]"
        }
      ],
      "stateMutability": "view",
      "type": "function"
    },
    {
      "inputs": [],
      "name": "getTotalWaves",
      "outputs": [
        {
          "internalType": "uint256",
          "name": "",
          "type": "uint256"
        }
      ],
      "stateMutability": "view",
      "type": "function"
    },
    {
      "inputs": [
        {
          "internalType": "address",
          "name": "",
          "type": "address"
        }
      ],
      "name": "lastWavedAt",
      "outputs": [
        {
          "internalType": "uint256",
          "name": "",
          "type": "uint256"
        }
      ],
      "stateMutability": "view",
      "type": "function"
    },
    {
      "inputs": [
        {
          "internalType": "string",
          "name": "_message",
          "type": "string"
        }
      ],
      "name": "wave",
      "outputs": [],
      "stateMutability": "payable",
      "type": "function"
    }
  ],
  "bytecode": "0x60806040526200004f6040518060400160405280601981526020017f57652068617665206265656e20636f6e737472756374656421000000000000008152506200007760201b620007d11760201c565b606444426200005f9190620001c4565b6200006b919062000261565b60018190555062000308565b62000117816040516024016200008e919062000184565b6040516020818303038152906040527f41304fac000000000000000000000000000000000000000000000000000000007bffffffffffffffffffffffffffffffffffffffffffffffffffffffff19166020820180517bffffffffffffffffffffffffffffffffffffffffffffffffffffffff83818316178352505050506200011a60201b60201c565b50565b60008151905060006a636f6e736f6c652e6c6f679050602083016000808483855afa5050505050565b60006200015082620001a8565b6200015c8185620001b3565b93506200016e8185602086016200022b565b6200017981620002f7565b840191505092915050565b60006020820190508181036000830152620001a0818462000143565b905092915050565b600081519050919050565b600082825260208201905092915050565b6000620001d18262000221565b9150620001de8362000221565b9250827fffffffffffffffffffffffffffffffffffffffffffffffffffffffffffffffff0382111562000216576200021562000299565b5b828201905092915050565b6000819050919050565b60005b838110156200024b5780820151818401526020810190506200022e565b838111156200025b576000848401525b50505050565b60006200026e8262000221565b91506200027b8362000221565b9250826200028e576200028d620002c8565b5b828206905092915050565b7f4e487b7100000000000000000000000000000000000000000000000000000000600052601160045260246000fd5b7f4e487b7100000000000000000000000000000000000000000000000000000000600052601260045260246000fd5b6000601f19601f8301169050919050565b61128480620003186000396000f3fe60806040526004361061004a5760003560e01c8063449d46c01461004f5780639a2cdc081461006b578063a42a466314610096578063bd43a908146100d3578063e6c7c456146100fe575b600080fd5b61006960048036038101906100649190610a78565b610129565b005b34801561007757600080fd5b50610080610632565b60405161008d9190610f0a565b60405180910390f35b3480156100a257600080fd5b506100bd60048036038101906100b89190610a4f565b61063b565b6040516100ca9190610f0a565b60405180910390f35b3480156100df57600080fd5b506100e8610653565b6040516100f59190610e16565b60405180910390f35b34801561010a57600080fd5b506101136107c9565b6040516101209190610f0a565b60405180910390f35b42600f600360003373ffffffffffffffffffffffffffffffffffffffff1673ffffffffffffffffffffffffffffffffffffffff168152602001908152602001600020546101769190611027565b106101b6576040517f08c379a00000000000000000000000000000000000000000000000000000000081526004016101ad90610eaa565b60405180910390fd5b67016345785d8a00003414610200576040517f08c379a00000000000000000000000000000000000000000000000000000000081526004016101f790610eea565b60405180910390fd5b42600360003373ffffffffffffffffffffffffffffffffffffffff1673ffffffffffffffffffffffffffffffffffffffff1681526020019081526020016000208190555060016000808282546102569190611027565b9250508190555061029c6040518060400160405280600d81526020017f25732068617320776176656421000000000000000000000000000000000000008152503361086a565b606460015442446102ad9190611027565b6102b79190611027565b6102c19190611139565b6001819055506032600154116104d85760006102db6107c9565b905060026040518060a001604052803373ffffffffffffffffffffffffffffffffffffffff16815260200184815260200142815260200160011515815260200183815250908060018154018082558091505060019003906000526020600020906005020160009091909190915060008201518160000160006101000a81548173ffffffffffffffffffffffffffffffffffffffff021916908373ffffffffffffffffffffffffffffffffffffffff16021790555060208201518160010190805190602001906103ab92919061092f565b506040820151816002015560608201518160030160006101000a81548160ff02191690831515021790555060808201518160040155505047811115610425576040517f08c379a000000000000000000000000000000000000000000000000000000000815260040161041c90610eca565b60405180910390fd5b60003373ffffffffffffffffffffffffffffffffffffffff168260405161044b90610e01565b60006040518083038185875af1925050503d8060008114610488576040519150601f19603f3d011682016040523d82523d6000602084013e61048d565b606091505b50509050806104d1576040517f08c379a00000000000000000000000000000000000000000000000000000000081526004016104c890610e8a565b60405180910390fd5b50506105df565b60026040518060a001604052803373ffffffffffffffffffffffffffffffffffffffff1681526020018381526020014281526020016000151581526020016000815250908060018154018082558091505060019003906000526020600020906005020160009091909190915060008201518160000160006101000a81548173ffffffffffffffffffffffffffffffffffffffff021916908373ffffffffffffffffffffffffffffffffffffffff16021790555060208201518160010190805190602001906105a792919061092f565b506040820151816002015560608201518160030160006101000a81548160ff0219169083151502179055506080820151816004015550505b3373ffffffffffffffffffffffffffffffffffffffff167f5f7e16dc676677766a70e9c5628aa6c54ddb8b6e5188e2ae1e1f17f1ffbea7164283604051610627929190610f25565b60405180910390a250565b60008054905090565b60036020528060005260406000206000915090505481565b60606002805480602002602001604051908101604052809291908181526020016000905b828210156107c057838290600052602060002090600502016040518060a00160405290816000820160009054906101000a900473ffffffffffffffffffffffffffffffffffffffff1673ffffffffffffffffffffffffffffffffffffffff1673ffffffffffffffffffffffffffffffffffffffff16815260200160018201805461070090611107565b80601f016020809104026020016040519081016040528092919081815260200182805461072c90611107565b80156107795780601f1061074e57610100808354040283529160200191610779565b820191906000526020600020905b81548152906001019060200180831161075c57829003601f168201915b50505050508152602001600282015481526020016003820160009054906101000a900460ff1615151515815260200160048201548152505081526020019060010190610677565b50505050905090565b600047905090565b610867816040516024016107e59190610e38565b6040516020818303038152906040527f41304fac000000000000000000000000000000000000000000000000000000007bffffffffffffffffffffffffffffffffffffffffffffffffffffffff19166020820180517bffffffffffffffffffffffffffffffffffffffffffffffffffffffff8381831617835250505050610906565b50565b6109028282604051602401610880929190610e5a565b6040516020818303038152906040527f319af333000000000000000000000000000000000000000000000000000000007bffffffffffffffffffffffffffffffffffffffffffffffffffffffff19166020820180517bffffffffffffffffffffffffffffffffffffffffffffffffffffffff8381831617835250505050610906565b5050565b60008151905060006a636f6e736f6c652e6c6f679050602083016000808483855afa5050505050565b82805461093b90611107565b90600052602060002090601f01602090048101928261095d57600085556109a4565b82601f1061097657805160ff19168380011785556109a4565b828001600101855582156109a4579182015b828111156109a3578251825591602001919060010190610988565b5b5090506109b191906109b5565b5090565b5b808211156109ce5760008160009055506001016109b6565b5090565b60006109e56109e084610f86565b610f55565b9050828152602081018484840111156109fd57600080fd5b610a088482856110c5565b509392505050565b600081359050610a1f81611237565b92915050565b600082601f830112610a3657600080fd5b8135610a468482602086016109d2565b91505092915050565b600060208284031215610a6157600080fd5b6000610a6f84828501610a10565b91505092915050565b600060208284031215610a8a57600080fd5b600082013567ffffffffffffffff811115610aa457600080fd5b610ab084828501610a25565b91505092915050565b6000610ac58383610d6d565b905092915050565b610ad68161107d565b82525050565b610ae58161107d565b82525050565b6000610af682610fc6565b610b008185610fe9565b935083602082028501610b1285610fb6565b8060005b85811015610b4e5784840389528151610b2f8582610ab9565b9450610b3a83610fdc565b925060208a01995050600181019050610b16565b50829750879550505050505092915050565b610b698161108f565b82525050565b6000610b7a82610fd1565b610b848185611005565b9350610b948185602086016110d4565b610b9d81611226565b840191505092915050565b6000610bb382610fd1565b610bbd8185611016565b9350610bcd8185602086016110d4565b610bd681611226565b840191505092915050565b6000610bee602783611016565b91507f4661696c656420746f207769746864726177206d6f6e65792066726f6d20636f60008301527f6e74726163742e000000000000000000000000000000000000000000000000006020830152604082019050919050565b6000610c54602983611016565b91507f57616974207365636f6e6473206265666f72652073656e64696e672061206e6560008301527f77206d65737361676500000000000000000000000000000000000000000000006020830152604082019050919050565b6000610cba603583611016565b91507f547279696e6720746f207769746864726177206d6f7265206d6f6e657920746860008301527f616e207468657920636f6e7472616374206861732e00000000000000000000006020830152604082019050919050565b6000610d20600083610ffa565b9150600082019050919050565b6000610d3a601683611016565b91507f6e65656420746f2073656e6420302e31206574682121000000000000000000006000830152602082019050919050565b600060a083016000830151610d856000860182610acd565b5060208301518482036020860152610d9d8282610b6f565b9150506040830151610db26040860182610de3565b506060830151610dc56060860182610b60565b506080830151610dd86080860182610de3565b508091505092915050565b610dec816110bb565b82525050565b610dfb816110bb565b82525050565b6000610e0c82610d13565b9150819050919050565b60006020820190508181036000830152610e308184610aeb565b905092915050565b60006020820190508181036000830152610e528184610ba8565b905092915050565b60006040820190508181036000830152610e748185610ba8565b9050610e836020830184610adc565b9392505050565b60006020820190508181036000830152610ea381610be1565b9050919050565b60006020820190508181036000830152610ec381610c47565b9050919050565b60006020820190508181036000830152610ee381610cad565b9050919050565b60006020820190508181036000830152610f0381610d2d565b9050919050565b6000602082019050610f1f6000830184610df2565b92915050565b6000604082019050610f3a6000830185610df2565b8181036020830152610f4c8184610ba8565b90509392505050565b6000604051905081810181811067ffffffffffffffff82111715610f7c57610f7b6111f7565b5b8060405250919050565b600067ffffffffffffffff821115610fa157610fa06111f7565b5b601f19601f8301169050602081019050919050565b6000819050602082019050919050565b600081519050919050565b600081519050919050565b6000602082019050919050565b600082825260208201905092915050565b600081905092915050565b600082825260208201905092915050565b600082825260208201905092915050565b6000611032826110bb565b915061103d836110bb565b9250827fffffffffffffffffffffffffffffffffffffffffffffffffffffffffffffffff038211156110725761107161116a565b5b828201905092915050565b60006110888261109b565b9050919050565b60008115159050919050565b600073ffffffffffffffffffffffffffffffffffffffff82169050919050565b6000819050919050565b82818337600083830152505050565b60005b838110156110f25780820151818401526020810190506110d7565b83811115611101576000848401525b50505050565b6000600282049050600182168061111f57607f821691505b60208210811415611133576111326111c8565b5b50919050565b6000611144826110bb565b915061114f836110bb565b92508261115f5761115e611199565b5b828206905092915050565b7f4e487b7100000000000000000000000000000000000000000000000000000000600052601160045260246000fd5b7f4e487b7100000000000000000000000000000000000000000000000000000000600052601260045260246000fd5b7f4e487b7100000000000000000000000000000000000000000000000000000000600052602260045260246000fd5b7f4e487b7100000000000000000000000000000000000000000000000000000000600052604160045260246000fd5b6000601f19601f8301169050919050565b6112408161107d565b811461124b57600080fd5b5056fea2646970667358221220aa11aa67a6fd5780ba9203350456251390492e570b4f8cdb8b187f364b07f8e464736f6c63430008000033",
  "linkReferences": {},
  "deployedLinkReferences": {}
}